:020000040000FA
:0400000007EF00F016
:0A000800218265ED06F033EF07F0EA
:10060000003F065B4F666D7D077F6F4573717565B3
:100610006E74616E646F21004D6963726F6F6E64FA
:100620006173004249502120424950210043616ECC
:1006300063656C616461004F7065726163616F0036
:0106400000B9
:100642001FEC07F0000E806E000E816E000E836EAE
:10065200000E826E000E846E000ED76E060ED66EEF
:10066200808AACEC06F01FC00FF01EC010F01DC057
:1006720011F02050C1EC05F042EC07F0180E106E9C
:10068200060E116EDFEC06F0000E206E000E1F6EDD
:10069200000E1E6E000E1D6E4FEF03F01FC00FF016
:1006A2001EC010F01DC011F02050C1EC05F082B246
:1006B2005DEF03F05FEF03F0A7EF03F06EEF03F0DF
:1006C2006EEF03F01FC00FF01EC010F01DC011F03E
:1006D2002050C1EC05F06EEF03F082A273EF03F03D
:1006E20075EF03F063EF03F077EF03F01E2A090EB4
:1006F2001E647EEF03F080EF03F085EF03F0000E3F
:100702001E6E1D2A85EF03F01E50D8A48BEF03F056
:100712008DEF03F09CEF03F0020E1D18D8A494EFA6
:1007220003F096EF03F09CEF03F0000E1E6E000E36
:100732001D6E9CEF03F01FC00FF01EC010F01DC015
:1007420011F02050C1EC05F0A7EF03F082B4ACEF3A
:1007520003F0AEEF03F0F6EF03F0BDEF03F0BDEFF1
:1007620003F01FC00FF01EC010F01DC011F020508A
:10077200C1EC05F0BDEF03F082A4C2EF03F0C4EFB9
:1007820003F0B2EF03F0C6EF03F0202A090E206453
:10079200CDEF03F0CFEF03F0D4EF03F0000E206EA5
:1007A2001F2AD4EF03F02050D8A4DAEF03F0DCEFD5
:1007B20003F0EBEF03F0060E1F18D8A4E3EF03F0EB
:1007C200E5EF03F0EBEF03F0000E206E000E1F6E5C
:1007D200EBEF03F01FC00FF01EC010F01DC011F0B0
:1007E2002050C1EC05F0F6EF03F082B6FBEF03F008
:1007F200FDEF03F040EF04F00CEF04F00CEF04F017
:100802001FC00FF01EC010F01DC011F02050C1EC2F
:1008120005F00CEF04F082A611EF04F013EF04F0E0
:1008220001EF04F0D5AE18EF04F01BEF04F0D58E03
:100832001CEF04F0D59E42EC07F00B0E106E060E74
:10084200116EDFEC06F01FC00FF01EC010F01DC0CD
:1008520011F02050C1EC05F081AE32EF04F036EF1A
:1008620004F0146A142A37EF04F0146A14321432B2
:10087200815014187F0B1418816E40EF04F082B07F
:1008820045EF04F047EF04F04FEF03F056EF04F0AA
:1008920056EF04F01FC00FF01EC010F01DC011F083
:1008A2002050C1EC05F056EF04F082A05BEF04F09B
:1008B2005DEF04F04BEF04F0819081AE63EF04F042
:1008C20067EF04F0146A142A68EF04F0146A143211
:1008D2001432815014187F0B1418816E000E206E92
:1008E200000E1F6E000E1E6E000E1D6ED59E1FC0E6
:1008F2000FF01EC010F01DC011F02050C1EC05F029
:1009020042EC07F0370E106E060E116EDFEC06F0A9
:10091200400E6EEC07F02D0E106E060E116EDFEC1F
:1009220006F00B0E156E260E146E5E0EE82EFED726
:10093200142EFCD7152EFAD742EC07F0180E106EC3
:10094200060E116EDFEC06F04FEF03F04FEF03F0EF
:100952004FEF03F007EF00F02050D8A4B3EF04F0FC
:10096200B5EF04F0C2EF04F01F50D8B4BBEF04F0AF
:10097200BDEF04F0C2EF04F00A0E206E1F06C2EFB4
:1009820004F02050D8A4C8EF04F0CAEF04F0E1EF5D
:1009920004F01F50D8A4D0EF04F0D2EF04F0E1EF3E
:1009A20004F01E50D8B4D8EF04F0DAEF04F0E1EF0F
:1009B20004F00A0E206E050E1F6E1E06E1EF04F013
:1009C2002050D8A4E7EF04F0E9EF04F00AEF05F0B5
:1009D2001F50D8A4EFEF04F0F1EF04F00AEF05F096
:1009E2001E50D8A4F7EF04F0F9EF04F00AEF05F077
:1009F2001D50D8B4FFEF04F001EF05F00AEF05F047
:100A02000A0E206E050E1F6E090E1E6E1D060AEFDF
:100A120005F02050D8A410EF05F012EF05F032EFE8
:100A220005F01F50D8A418EF05F01AEF05F032EFC9
:100A320005F01E50D8A420EF05F022EF05F032EFAA
:100A420005F01D50D8A428EF05F02AEF05F032EF8B
:100A520005F00A0E206E050E1F6E090E1E6E32EF95
:100A620005F020062050D8A439EF05F03BEF05F041
:100A7200B7EF05F01F50D8A441EF05F043EF05F0A2
:100A8200B7EF05F01E50D8A449EF05F04BEF05F083
:100A9200B7EF05F01D50D8A451EF05F053EF05F064
:100AA200B7EF05F081AE58EF05F05CEF05F0066A8E
:100AB200062A5DEF05F0066A0632063281500618F4
:100AC2007F0B0618816E4EEC07F0230E026E060EA7
:100AD200036EFFEC06F081AC71EF05F075EF05F0E7
:100AE200066A062A76EF05F0066A063A06460646C2
:100AF20081500618BF0B0618816E000E206E000E84
:100B02001F6E000E1E6E000E1D6E1FC001F01EC075
:100B120002F01DC003F0205013EC06F0D59E100E1B
:100B2200076E390E066E0E0EE82EFED7062EFCD785
:100B3200072EFAD781ACA0EF05F0A4EF05F0066A04
:100B4200062AA5EF05F0066A063A064606468150D1
:100B52000618BF0B0618816E4EEC07F0180E026ED7
:100B6200060E036EFFEC06F0B7EF05F01FC001F0B2
:100B72001EC002F01DC003F0205013EC06F012005C
:100B8200136E1350010D010EF324F66E060EF420BF
:100B9200F76E0800F5CF83FF8A860D0E126EFC0EEB
:100BA200E82EFED7122EFCD78A960F50010D010EA9
:100BB200F324F66E060EF420F76E0800F5CF83FFDD
:100BC2008A880D0E126EFC0EE82EFED7122EFCD76E
:100BD2008A981050010D010EF324F66E060EF420D1
:100BE200F76E0800F5CF83FF8A840D0E126EFC0E9D
:100BF200E82EFED7122EFCD78A941150010D010E59
:100C0200F324F66E060EF420F76E0800F5CF83FF8C
:100C12008A820D0E126EFC0EE82EFED7122EFCD723
:100C22008A921200056E0550010D010EF324F66E34
:100C3200060EF420F76E0800F5CF83FF8A860D0EAC
:100C4200046EFC0EE82EFED7042EFCD78A960150C5
:100C5200010D010EF324F66E060EF420F76E080065
:100C6200F5CF83FF8A880D0E046EFC0EE82EFED7A8
:100C7200042EFCD78A980250010D010EF324F66E61
:100C8200060EF420F76E0800F5CF83FF8A840D0E5E
:100C9200046EFC0EE82EFED7042EFCD78A94035075
:100CA200010D010EF324F66E060EF420F76E080015
:100CB200F5CF83FF8A820D0E046EFC0EE82EFED75E
:100CC200042EFCD78A9212000600F3CF09F0F4CF6B
:100CD2000AF0F6CF0BF0F7CF0CF0F8CF0DF0F5CF0E
:100CE2000EF0F2A477EF06F079EF06F09EEF06F031
:100CF200F2941C2A000ED76E060ED66EFA0E1C64F3
:100D020085EF06F087EF06F09EEF06F0000E1C6EF0
:100D120081A08EEF06F092EF06F0086A082A93EFA0
:100D220006F0086A81500818FE0B0818816EADECB7
:100D320004F09EEF06F09EEF06F00EC0F5FF0DC028
:100D4200F8FF0CC0F7FF0BC0F6FF0AC0F4FF09C0A2
:100D5200F3FF21921100030E126E8D908D92140EEC
:100D6200116E7A0EE82EFED7112EFCD712C083FF29
:100D72008D828D92070E116E7D0EE82EFED7112EFA
:100D8200FCD700F08D828D92420EE82EFED700D065
:100D92008D828D92420EE82EFED700D0020E836E17
:100DA2008D828D92380E5AEC07F0060E5AEC07F03F
:100DB2000C0E5AEC07F042EC07F012008D80EEEFB9
:100DC20006F010C0F6FF11C0F7FF0800F5505AEC0C
:100DD20007F0104A112AEEEF06F010C0F6FF11C01C
:100DE200F7FF0800F5500009D8A4FAEF06F0FCEF6F
:100DF20006F0E2EF06F0FEEF06F012008D800EEF35
:100E020007F002C0F6FF03C0F7FF0800F55064ECDC
:100E120007F0024A032A0EEF07F002C0F6FF03C0F2
:100E2200F7FF0800F5500009D8A41AEF07F01CEFED
:100E320007F002EF07F01EEF07F01200DF0E926ECE
:100E4200000E936E9468000E956E0C0E966E000E58
:100E52009B6EE30ED36EA00EF26ED08EF184430E23
:100E6200D56E120000EE16F00B0EEE6AE806FDE1FA
:100E720021902192000EF86E060EF76E000121EF0E
:100E820003F08D90010E5AEC07F0030E106E980ECF
:100E9200E82EFED7102EFCD712008D90010E64ECC6
:100EA20007F0030E026E980EE82EFED7022EFCD734
:100EB20012000F6EA00E00D0E82EFDD70FC083FFE8
:100EC2008D828D921200016EA00E00D0E82EFDD709
:100ED20001C083FF8D828D921200106E8D90105092
:080EE200800F5AEC07F012002A
:020000040020DA
:08000000FFFFFFFFFFFFFFFF00
:020000040030CA
:0E000000FF081F1EFF8181FF0FC00FE00F40A1
:00000001FF
